:020000040800F2
:10000000B00700209D0100084717000811160008DE
:1000100045170008A90200084D1A0008000000005A
:10002000000000000000000000000000C5170008EC
:10003000890300080000000061170008C7170008C6
:10004000B7010008B7010008B7010008B7010008B0
:10005000B7010008B7010008B7010008B7010008A0
:10006000B7010008B7010008B7010008B701000890
:10007000B7010008B7010008B7010008B701000880
:10008000B7010008B7010008B7010008B701000870
:10009000AD020008B7010008B7010008B701000869
:1000A000B7010008B7010008B7010008B701000850
:1000B000B7010008B7010008B7010008B701000840
:1000C000B7010008B7010008B7010008B701000830
:1000D000B7010008B701000899190008B701000826
:1000E000B7010008B7010008B7010008B701000810
:1000F000B7010008B7010008B7010008B701000800
:10010000B7010008B7010008B7010008B7010008EF
:10011000B7010008B7010008B7010008B7010008DF
:10012000B7010008B7010008B7010008B7010008CF
:10013000B70100080000000000000000B70100083F
:10014000B9020008B7010008B7010008B7010008AC
:10015000B7010008B7010008B7010008B70100089F
:10016000B7010008B7010008B7010008B70100088F
:10017000B7010008B70100080000000000000000FF
:10018000B7010008B7010008DFF80CD000F07AF8DA
:1001900000480047511C0008B0070020064880476F
:1001A00006480047FEE7FEE7FEE7FEE7FEE7FEE75C
:1001B000FEE7FEE7FEE7FEE75518000889010008A4
:1001C0002DE9F05F0546002092469B46884606468C
:1001D000814640241BE0284641464746224600F01F
:1001E00041F853465A46C01A914110D31146184659
:1001F000224600F028F82D1A67EB01084F462246E8
:100200000120002100F01FF817EB00094E41201ECD
:10021000A4F10104DFDC484631462A464346BDE8E6
:10022000F09FD2B201E000F8012B491EFBD27047CB
:100230000022F6E710B513460A4604461946FFF7B2
:10024000F0FF204610BD202A04DB203A00FA02F11C
:10025000002070479140C2F1200320FA03F31943B4
:1002600090407047202A04DB203A21FA02F0002156
:10027000704721FA02F3D040C2F1200291400843B6
:1002800019467047064C074D06E0E06840F0010350
:1002900094E8070098471034AC42F6D3FFF778FF94
:1002A0007C1F00089C1F0008FEE70000014800F0CA
:1002B000DEB9000038000020014800F0D8B9000085
:1002C0006000002038B50E4C4FF400752560002505
:1002D000A560E560082525610A4C050A2570607057
:1002E000080AA070E170100A20716271180AA071EA
:1002F000E3716B4622460249034800F059F838BDC5
:1003000098030020300000203800002001681823E6
:10031000CAB2103AB2FBF3F2054B6FF30901032A9C
:100320009B5CC36500D9091D8165084670470000C4
:100330005C1F000810B5014600208B698A6A4FF0E7
:10034000C07453B1B3F5005F15D072B1012A0CD05F
:10035000022A0AD0032A09D104E01AB1012A06D0E0
:10036000022A03D1C96AC90100D5012010BDC96A9A
:10037000A142FAD010BD002AF7D0012AF2D0022AF9
:10038000F3D0032AF3D010BD7047704790F82020B7
:10039000012A07D0022A05D0416A41F48021416236
:1003A00001207047006842690A434261002070479B
:1003B000F0B590F820500468A468012D05D0022DF6
:1003C00003D0416A41F4802153E014F0406F01D121
:1003D000E5004BD5C4F30164022C03D9416A41F412
:1003E000000146E00125A5401D608D684FF4C073F3
:1003F0009DB1CE6835434E6845EAC605066803EBF5
:100400000417F5514FF4C275076805EB04150E6922
:100410007E51097D012905D009E00E88CD6845EAA5
:100420004655EBE701684E5946F480764E511179F6
:10043000D2F805504FF4C67641EA0525016806EB6F
:1004400004168D511178D2F801204FF4C47541EA99
:100450000221026805EB04155151006803EB0411F9
:10046000425842F0010242500020F0BD416A41F47E
:10047000001141620120F0BD10B590F82020012A42
:1004800007D0022A05D0416A41F48021416201204F
:1004900010BD3B48D0F8002242F00102C0F8002213
:1004A000D0F8002222F47C52C0F80022D0F80022BA
:1004B0004B6A42EA0322C0F800220A7D02F01F03C1
:1004C00001229A40D0F81C329343C0F81C32CB6909
:1004D000B3B9D0F80C329343C0F80C328C894B6816
:1004E00064F31F434C6900EBC404C4F840320C8928
:1004F0000B6864F31F434C6900EBC404C4F8443236
:10050000CB69012B16D1D0F80C321343C0F80C3252
:100510000C884B6864F31F434C6900EBC404C4F8B7
:1005200040320C89CB6864F31F434C6900EBC40470
:10053000C4F844328B69002BD0F804320ED0134338
:10054000C0F804320B69002BD0F8143208D01343E2
:10055000C0F81432096A012904D008E09343EFE798
:100560009343F5E7D0F81C121143C0F81C12D0F8E1
:10057000001221F00101C0F80012002010BD00009F
:1005800000640040704730B590F82040012C05D041
:10059000022C03D0416A41F480215DE00468002907
:1005A00055D02469A40754D04FF4D874056804EBDF
:1005B00001142D5915F00405956005682D594ED08C
:1005C000ED08556005682C5904F00204D4604FF41E
:1005D000DA74056804EB01142D5905F00F05156157
:1005E00005682D59C5F30725956105682C59240C1C
:1005F00054614FF4DC72046802EB0112A4581C70C1
:100600000468A458240A5C700468A458240C9C70E4
:100610000468A258120EDA704FF4DE72046802EB1E
:100620000112A4581C710468A458240A5C7104685F
:10063000A458240C9C710468A258120EDA71006848
:1006400081B1016941F020010161002030BDE46801
:10065000A8E7416A41F400114162012030BD6D0DEF
:100660001560AFE7C16841F02001C160EDE72DE9F9
:10067000F05F0546006800244669D0F8049087685A
:10068000D0F80CB0D0F810A0D0F81880F10748D0FE
:10069000F90714D001218160B80703D5284600F07E
:1006A0007EFA0CE0780702D54FF4006407E03807C3
:1006B00002D54FF4805402E0284600F06FFAF805A6
:1006C00016D529684FF480708860B80503D5284690
:1006D00000F067FA0CE0780502D544F4005407E016
:1006E000380502D544F4804402E0284600F058FA68
:1006F000F80316D529684FF480308860B80303D515
:10070000284600F050FA0CE0780302D544F4004487
:1007100007E0380302D544F4803402E0284600F0B4
:1007200041FA300707D55FEACB6004D5296810206D
:1007300044F40074C86070074FF0080707D55FEAFB
:100740000B7004D52868C760284600F09BF9B007F5
:1007500006D52868C068800702D0284600F094F9C2
:10076000700607D55FEACA6004D52968102044F4F2
:1007700080640861B00607D55FEA0A7004D528686E
:100780000761284600F0DAF9F00606D52868006906
:10079000800702D0284600F0D2F9B00308D55FEAFE
:1007A000C96005D5296810204860284600F0C8F9BE
:1007B000F00307D55FEA097004D52868476028462A
:1007C00000F0F2F9300446D55FEA497040D5F005F3
:1007D00004D55FEAC87001D044F00104B00504D527
:1007E0005FEA887001D544F00204700504D55FEA21
:1007F000487001D544F00404300529D518F0700F75
:1008000026D008F07000402815D006DC102809D04A
:1008100020280AD0302816D10AE050280ED06028AF
:1008200011D10EE044F008040DE044F010040AE099
:1008300044F0200407E044F0400404E044F0800465
:1008400001E044F480742868816921F070018161BD
:10085000296804204860002C05D0686A204368623B
:100860002846FFF78FFEBDE8F09F70B5040003D067
:1008700094F8200010B104E0012070BD204600F083
:1008800081F82068016821F00201016000F0E6FAB9
:100890000546052604E000F0E1FA401B0A2811D8BD
:1008A000206840688007F6D42068016841F00101A3
:1008B000016000F0D3FA05460BE000F0CFFA401BD0
:1008C0000A2806D9606A40F40030606284F820602B
:1008D000D2E720684068C007EFD0207E012820685A
:1008E00001683DD021F080010160607E0128206810
:1008F000016838D021F040010160A07E0128206805
:10090000016833D021F020010160E07E01282068D9
:1009100001682ED041F010010160207F012820687D
:10092000016829D021F008010160607F012820685A
:10093000016824D021F004010160D4E902010843D8
:10094000D4E90412114308436168491E0843216831
:10095000C86100206062012084F82000002070BD82
:1009600041F08001C0E741F04001C5E741F02001BE
:10097000CAE721F01001CFE741F00801D4E741F0C8
:100980000401D9E7F0B587B0044614216846FFF7A3
:100990004FFC374B3748DFF8D4E01968D4F800C073
:1009A000344A02250326092710300024491CF44547
:1009B00024D11960012907D1016841F0007101605B
:1009C000006800F000700590106840F001001060B1
:1009D000106802AB00F0010005904FF4C050CDE963
:1009E000000583E8D0006946234800F05BF9002247
:1009F0000121142000F0A0FA142033E0DFF87CE09D
:100A0000F44531D1D0F800C04CF0806CC0F800C083
:100A1000D0F800C001290CF0806CCDF814C019602A
:100A200007D1016841F000710160006800F00070BA
:100A30000590106840F002001060106802AB00F0F2
:100A4000020005904FF44050CDE9000583E8D00046
:100A500069460B4800F026F900220121402000F0F1
:100A60006BFA402000F05AFA07B0F0BD0064004075
:100A70000C000020303802400000024000680040B6
:100A8000000402407047000000B589B007AB6A4619
:100A90000021FFF778FD009A26492748A2F201229B
:100AA000042A16D2DFE802F00217232F00220A7070
:100AB00001880181BDF81C1049BA0180BDF81E10E3
:100AC00049BA4180BDF8201049BA81809DF82210B2
:100AD000817109B000BD01224A70174A438902F1B1
:100AE0000A015382BDF81C2052BA428116E002224C
:100AF0008A70114A838A02F114019383BDF81C2085
:100B000052BA82820AE00322CA700B4AC38B02F1F6
:100B10001E01D384BDF81C2052BAC283BDF81E004A
:100B200040BA4880BDF8200040BA88809DF8220075
:100B30008871CEE7240000203803002070477047FA
:100B40007047000070B5044690F82000012804D0DA
:100B5000606A40F40020606218E0022084F82000FF
:100B60002068016821F00101016000F077F9054675
:100B70000EE000BF00F072F9401B0A2808D9606A35
:100B800040F400306062052084F82000012070BD30
:100B900020684068C007EDD1606270BD7047704743
:100BA0007047704770477047704700002DE9F0416B
:100BB000044600F053F906465CB1002584F8345031
:100BC000022084F835002068016821F001010160ED
:100BD0000DE00120BDE8F08100F040F9801B052800
:100BE00005D920206065032084F83500F2E72068ED
:100BF0000068C007F0D12268116820480140D4E99C
:100C000001031843D4E90336334318436369184397
:100C1000A3691843E3691843236A18430843616AC8
:100C2000042903D1D4E90B13194308431060206849
:100C30004069666A20F0070130460E430127042808
:100C40000CD1A06A0643E06A40B12046FFF772FB70
:100C500020B14020606584F83570BAE720684661AD
:100C60002046FFF753FB94F85C203F2191408160C0
:100C7000656584F835700020ACE700003F8010F017
:100C800070B5044600F0EAF80546601C02D004483E
:100C90000078044400F0E2F8401BA042FAD370BD93
:100CA000100000202DE9F84F00224FF00108032525
:100CB0004FF00F0E0B6808FA02F42340A3426ED1E6
:100CC0004E68012E05D0022E03D0112E01D0122E17
:100CD00012D186684FEA420C05FA0CF7BE43CF6882
:100CE00007FA0CF7374387604668A6430C79C4F3CC
:100CF0000014944034434460C668570005FA07FC6A
:100D00008C6826EA0C06BC403443C4604C68022C54
:100D100001D0122C13D1D40800EB8404A346D4F8DC
:100D2000209054074FEAD46A0EFA0AF629EA060917
:100D30000E6906FA0AF646EA0906CBF8206006684C
:100D40000C7926EA0C0604F00304BC40344304602A
:100D50004C68E40065D5364C266846F4804626602B
:100D6000246822F0030604F480440094314C344497
:100D7000A446D4F808489607370F0EFA07F6B4438E
:100D80002D4EB04201D1002624E02C4EB04201D1BC
:100D900001261FE02A4EB04202D102261AE040E0AE
:100DA000284EB04201D1032614E0274EB04201D1B3
:100DB00004260FE0254EB04201D105260AE0244E5C
:100DC000B04201D1062605E0224EB04201D10726ED
:100DD00000E00826BE402643CCF808681E4E346862
:100DE0004F689C43FF0300D51C4334601A4C241DFC
:100DF00026684F689E43BF0300D51E432660164EEB
:100E0000083634684F689C43FF0200D51C433460A9
:100E1000114E0C3634684F689C43BF0200D51C430A
:100E20003460521C102AFFF445AFBDE8F88F000073
:100E300044380240003001400000024000040240FB
:100E400000080240000C0240001002400014024062
:100E500000180240001C0240003C0140014880682C
:100E60007047000010000020024881680278114499
:100E700081607047100000200B4810B5016841F4F4
:100E800000710160016841F480610160016841F412
:100E900080710160032000F06FF8002000F006F878
:100EA00000F024F8002010BD003C024070B50D4D4C
:100EB00004464FF47A712878B1FBF0F00A490968CA
:100EC000B1FBF0F000F004FB48B9102C07D200226F
:100ED0002146501E00F030F800206C6070BD0120EB
:100EE00070BD0000100000201C0000200A4808B55A
:100EF000016841F480410160006800F48040009086
:100F00000548001F016841F080510160006800F051
:100F10008050009008BD000044380240002809DBE2
:100F200000F01F02012191404009800000F1E02003
:100F3000C0F8001170470000F0B40E4B1B680C465F
:100F4000C3F30223C3F10705042D00D90425191D9D
:100F5000072901D2002300E0DB1E012606FA05F175
:100F6000491E214099409E40761E16403143F0BCF8
:100F700000F06DBD0CED00E0064900F007020868C6
:100F80004FF6FF03184040EA0220034A104308606E
:100F9000704700000CED00E00000FA052DE9F04775
:100FA0000E46050065D0DFF81481D8F80000F7B2CE
:100FB00000F00F00B04207D288F80070D8F80000A7
:100FC00000F00F00B04254D128683D4C810712D583
:100FD000400703D5206840F4E050206028780007DF
:100FE00003D5206840F4604020602068A96820F0A4
:100FF000F000084320602878C0072DD03049686889
:101000000839012812D0022813D0032811D009680A
:10101000890700292DDA216821F0030101432160AD
:10102000FFF71CFF814641F2883A0EE00968890308
:10103000EFE709688901ECE7FFF710FFA0EB090172
:10104000514502D90320BDE8F0872068696800F0A7
:101050000C00B0EB810FEFD1D8F80010404601F042
:101060000F01B14207D90770006800F00F00B042CD
:1010700001D00120E7E72878400705D52068E96816
:1010800020F4E050084320602878000706D5206847
:10109000296920F4604040EAC100206000F038F87F
:1010A0002168084AC1F30311515CC8400649086031
:1010B00006480068FFF7FAFE0020C4E7003C024043
:1010C00008380240641F00081C00002014000020A3
:1010D0000448054900680968044AC1F38221515C4B
:1010E000C84070471C00002008380240741F0008E8
:1010F0000448054900680968044AC1F34231515C5B
:10110000C84070471C00002008380240741F0008C7
:10111000154810B5006810F00C02144813D014499B
:10112000042A0FD0082A0ED10F4C241F22682368EE
:1011300002F03F025B0207D52068C0F38810A0FBD5
:10114000010106E0084610BD2168C1F38811A1FB2A
:1011500000010023FFF734F82168C1F30141491C65
:101160004900B0FBF1F010BD083802400024F40043
:1011700040787D012DE9F84F04006ED02078DFF82B
:101180003C93C007A9F104054AD009F104000168A5
:10119000C1F38101012908D00068C0F38100022851
:1011A0000AD1D9F80000400206D52868800337D557
:1011B00060680028E1D033E06068B0F5803F10D06F
:1011C000B0F5A02F286810D020F48030286028685F
:1011D00020F4802028606068A8B1FFF73FFE064633
:1011E0000DE0286840F48030F4E740F48020286067
:1011F000F7E700BFFFF732FE801B642873D828682A
:101200008003F7D50CE0FFF729FE064605E000BF96
:10121000FFF724FE801B6428F0D828688003F7D4E9
:101220002078DFF89C8280074FF0000A3ED5A34863
:10123000001D016811F00C0F08D00068C0F3810098
:1012400002280BD1D9F80000400207D42868800793
:1012500016D5E068012800D112E02BE1E068B8B1B2
:101260000120C8F80000FFF7F9FD064605E000BFC1
:10127000FFF7F4FD801B0228C0D828688007F7D547
:101280002868216920F0F80040EAC10028600DE0DC
:10129000C8F800A0FFF7E2FD064604E0FFF7DEFD18
:1012A000801B02281FD828688007F7D42078000701
:1012B00022D5824E83486169703671B10121016087
:1012C000FFF7CCFD074604E0FFF7C8FDC01B02286E
:1012D00009D830688007F7D50EE0C0F800A0FFF706
:1012E000BDFD074605E082E0FFF7B8FDC01B022800
:1012F0007DD830688007F7D42078400768D5DFF8BC
:10130000BCB100270BF13C0BDBF80000C0000BD494
:10131000DBF8001041F08051CBF80010DBF8000042
:10132000012700F080500090674E3068C00510D44F
:10133000306840F480703060FFF790FD009005E069
:10134000FFF78CFD0099401A022850D83068C0057C
:10135000F6D55A4EA0686C3601280FD005283068A3
:1013600010D020F001003060306820F004003060C0
:10137000A068B8B1FFF772FD00900FE0306840F050
:101380000100F4E740F004003060F7E7FFF766FD86
:101390000099411A41F28830814266D8306880074E
:1013A000F4D50EE0FFF75AFD009007E0FFF756FD79
:1013B0000099411A41F28830814256D8306880073E
:1013C000F4D42FB1DBF8001021F08051CBF80010DD
:1013D000A069C8B33949091D0968C1F3810102290F
:1013E0004AD00228504607D0C8F8600000E03CE030
:1013F000FFF734FD04463BE04746C8F86000FFF7BE
:101400002DFD064605E000BFFFF728FD801B0228E2
:101410002BD828688001F7D4D4E907010843A16AD2
:101420002A4A490802EB0141626A41EA82110843F3
:1014300094F82C1040EA0161C9F8001001203866C8
:10144000FFF70CFD044606E036E000BFFFF706FD9F
:10145000001B022809D828688001F7D52CE000BFBE
:10146000FFF7FCFC001B022802D90320BDE8F88F1F
:1014700028688001F4D41FE00128F7D0D9F80000D3
:10148000E26900F48001914214D1226A00F03F0128
:1014900091420FD147F6C071626A0140914209D171
:1014A000A26A00F44031914204D1E16A00F0706018
:1014B000884201D00120D9E70020D7E70438024054
:1014C00000004742800E4742007000400000FFFFCE
:1014D00010B5401EB0F1807F01D3012010BD4FF048
:1014E000E02460610F21601700F0B1FA0020A061D4
:1014F00007202061002010BD70B5040004D094F8CE
:101500003900002510B106E0012070BD84F8385084
:10151000204600F023F8242084F839002068C168B0
:1015200021F40051C160204600F0A2F92068016951
:1015300021F4904101612068416921F02A01416153
:101540002068C16841F40051C160E563202084F83F
:10155000390084F83A00002070BD000070B586B0F4
:10156000064614216846FEF763FE24493068884227
:1015700041D123480025016841F400310160006831
:1015800000F4003005901E481038016841F0010158
:1015900001600068694600F0010005900C20009091
:1015A0000220CDE90105032003900720049015488F
:1015B000FFF778FB154C144820604FF00060C4E939
:1015C00001054014C4E9035065614FF44030A56142
:1015D000C4E9075020466562FFF7E8FA08B1FEF754
:1015E000D4FE7463002211462620A663FFF7A4FCF4
:1015F0002620FFF793FC06B070BD000000440040B9
:10160000403802400000024088600240C8000020CC
:10161000FEE700000F4810B50D490160032141604D
:1016200000214FF410228160C0E903124FF4001230
:101630004261017641768176C17601774177FFF785
:1016400014F9002803D0BDE81040FEF79EBE10BD7F
:1016500000640040380000200F4810B50D490160BB
:101660000321416000214FF400228160C0E9031290
:101670004FF440124261017641768176C17601775E
:101680004177FFF7F2F8002803D0BDE81040FEF7DD
:101690007CBE10BD0068004060000020094808B50D
:1016A000016841F4001101600068002200F400109C
:1016B000009011461020FFF73FFCBDE808401020C5
:1016C000FFF72CBC303802400D4808B5016841F0E6
:1016D00080010160016801F080010091016841F022
:1016E00001010160016801F001010091016841F010
:1016F00002010160006800F00200009008BD0000D7
:10170000303802400D4810B50B4901600C4941606A
:1017100000214FF480628160C0E903120C22C0E90D
:101720000521C161FFF7E8FE002803D0BDE81040A5
:10173000FEF72BBE10BD00000044004088000020D2
:10174000A0860100FEE7704730B4034C4466034CAA
:10175000846630BC00F090BB791E0008871E00082C
:101760007047000030B5144B1C68656945F04005B2
:1017700065611B68DC6844F01004DC600F4B1C687A
:10178000256825F0010525601C682568ED07F7D15F
:101790001D680B4CAC601C68E0601868016118683B
:1017A00042601868016841F480210160186801688E
:1017B00041F00101016030BD88000020C800002018
:1017C000044400407047FFF74FBB000030B593B0B2
:1017D00030216846FEF72CFD14210CA8FEF728FDE9
:1017E0001A480025016841F080510160006800F04E
:1017F000805011901648016841F4804101600068F2
:10180000022400F480401190012000900004019017
:101810008001CDE90640192008904FF4A870CDE969
:10182000090404200B906846FFF7A4FC0CA90F20C4
:1018300081E831004FF4A0500F90E0021090052194
:101840000CA8FFF7ABFB13B030BD000040380240DE
:10185000007000400548016841F4700101600349CF
:101860004FF00060803908607047000088ED00E0AC
:101870002DE9F041044600680169E26821F4405115
:10188000114301612169A068E2690843616911435C
:1018900008432168CA6849F20C639A430243CA604C
:1018A00020684169A26921F4407111434161E069F6
:1018B000192764253226B0F5004F354A354920688E
:1018C0004FF0000806D0884201D0904236D1FFF791
:1018D0000FFC35E0884201D0904202D1FFF708FCAE
:1018E00001E0FFF7F5FB61684A18A0FB070148EB30
:1018F0000803FEF765FC0146B0FBF5F00201B1FB01
:10190000F5F06FF01803584301EB800006EBC000C0
:10191000B0FBF5F000F0F80002EB4002B1FBF5F08F
:10192000584301EB800006EBC000B0FBF5F000F07F
:101930000700216810448860BDE8F081FFF7C8FB0C
:1019400061688B0F8A00A0FB0701FEF739FC014696
:10195000B0FBF5F06FF01802504301EB800006EB8E
:101960000010B0FBF5F000F0F002B1FBF5F002EB77
:101970000012B1FBF5F06FF01803584301EB800043
:1019800006EB0010B0FBF5F000F00F00D1E700000F
:101990000014014000100140264818B40068016896
:1019A000890604D501684068009018BC7047224938
:1019B0000968C906F9D501684068204A0090106896
:1019C00001684FF024030C031D49046824F001044E
:1019D000046016D410684468C4F12404A4B20C80D6
:1019E00043601068016841F40021016010680168DB
:1019F00041F001010160122CD7D1124901F116000A
:101A000015E014686068C0F1240080B2088063604B
:101A10000D498B6A23F400238B6211680A6842F037
:101A200001020A601228C0D1064901F13A0018BC2F
:101A300000F03ABA8800002000440040C8000020AE
:101A4000200000202801002000600240FEE7090776
:101A5000090E002804DB00F1E02080F80014704734
:101A600000F00F0000F1E02080F8141D704702E044
:101A700008C8121F08C1002AFAD170477047002019
:101A800001E001C1121F002AFBD17047D0ED000A0E
:101A9000F4EEC00AF1EE10FA01DD80ED000AD0ED9F
:101AA000000AB1EE400AF4EEC00AF1EE10FA01D2DB
:101AB00080ED000A7047000000B58BB000200121C6
:101AC000CDE90601089100900190029003900590E5
:101AD000049069460C48FEF7CFFC0B48FFF732F83C
:101AE00002210948FEF752FC0E2009900590694634
:101AF0000648FEF7C1FC0548FFF724F80221034819
:101B0000FEF744FC0BB000BD380000206000002050
:101B100070B500202DED028B84B00446009001903A
:101B20000290039000F090F8B0F9040000EB400040
:101B3000C00000EE100AF8EEC08A00F085F8B0F997
:101B4000000000EB4000C00000EE100AB8EEC08AB2
:101B500000F07AF8B0F90200B0EE681A00EB40002D
:101B6000C00000EE100A6846F0EE480AB8EEC00A5F
:101B700000F040F81E4D6E46204600F05BF8B0F9CC
:101B8000020000EE100A06EB8400D0ED000A04EB20
:101B9000C40000EB4000B8EEC00A05EB800000F086
:101BA00089F8641CE4B2042CE6D395ED600ABDEE1E
:101BB000C00A10EE100A95ED450A03B2BDEEC00A48
:101BC00010EE100A95ED2A0A02B2BDEEC00A10EE20
:101BD000100A95ED0F0A01B2BDEEC00A10EE100A10
:101BE00000B2FEF76FFB04B0BDEC028B70BD0000CD
:101BF0008801002030EEC02ADFED0D1A01EE212A07
:101C000080ED002A30EE202A01EE212A80ED012A03
:101C100030EE602AB1EE400A30EE600A01EE212A71
:101C200001EE210A80ED022A80ED030A70470000D0
:101C3000CDCC4C3E00F00300024900EB800001EBEC
:101C400040007047380300200048704728010020FA
:101C5000FFF712F9FFF7BAFDFFF736FDFFF71EFD9C
:101C6000FFF750FDFFF7D6FCFFF7F6FC00F00EF98A
:101C7000FFF722FF0D4F0E4D44F620665FF0000483
:101C800004EBC40000EB400095EC030A07EB800076
:101C9000324633460321FFF757FD641C042CEFDB6B
:101CA000FFF736FF0220FEF7EBFFE7E78801002091
:101CB0000000002000B530EEC01A80ED080AC0ED2B
:101CC000050A80ED0B1AD0ED141A01469FED692A22
:101CD00030EEC00AF5EEC01AB1EE400AF1EE10FA8D
:101CE0000ED0B5EEC01AF1EE10FA02DDF0EE410AA8
:101CF00001E0F0EE400AF4EEE10AF1EE10FA12DC37
:101D0000D1ED150AF5EEC00AF1EE10FA0ED0B5EEDF
:101D1000C01AF1EE10FA01DDB0EE410AB4EEE00AAD
:101D2000F1EE10FA02D2B0EE420A00BD886D01F168
:101D30003402032802D0042838D07AE091ED000A5A
:101D4000104620EE010A81ED0C0A91ED0D0AD1ED4D
:101D5000010A00EE810A81ED0D0A91ED0A0AD1ED2A
:101D6000020A31EE400A20EE200A81ED0E0A91EDC2
:101D7000180AB8EE400AFFF789FE91ED0C0AD1ED82
:101D80000D0A01F13C0030EE200AD1ED0E0A30EED2
:101D9000200A81ED0F0A91ED170AB8EE400AFFF70D
:101DA00075FE91ED0F0A81ED100A42E091ED0A0AED
:101DB000D1ED001A104671EE400A60EEA10AC1EDA5
:101DC0000C0AD1ED010A60EE810AC1ED0D0AF0EEB8
:101DD000000A00EE601A91ED090AD1ED020A31EE17
:101DE000000A20EE200A81ED0E0A91ED180AB8EEE5
:101DF000400AFFF74BFE91ED0C0AD1ED0D0A01F1FF
:101E0000480030EE200AD1ED0E0A30EE200A81EDB6
:101E1000110AD1ED130A30EE800A81ED120A91ED1C
:101E2000170AB8EE400AFFF731FE91ED120A81ED74
:101E3000130A91ED0A0A81ED090A91ED0B0A81ED71
:101E40000A0A91ED070A81ED060A91ED080A81ED73
:101E5000070A91ED040A81ED030A91ED050A81ED6F
:101E6000040A886D032802D091ED120A00BD91ED9D
:101E70000F0A00BD0000000000F1580C8CE80E00B5
:101E800080EC030A704780EC030A70470449002085
:101E9000242248800349A1F12400FFF763BC00001D
:101EA0002000002062010020F0B5002855D0002954
:101EB00053D00278437842EA0322C2F30A020A802E
:101EC00043788478DB0843EA4413C3F30A034B8066
:101ED0008478C578A40944EA8504057944EA852410
:101EE000C4F30A048C80057946796D0845EAC61565
:101EF000C5F30A05CD804679C6F301168E72467980
:101F0000B609CE728679C77946EA07268E81067AA7
:101F1000477A46EA0726CE81867AC77A46EA0726B6
:101F20000E82067B8E74467BCE74867BC77B46EA28
:101F300007268E82067C407CA2F580620A80A3F58B
:101F400080634B80A4F5806446EA00208C80A5F570
:101F50008065CD80A0F580600881F0BD0006101678
:101F6000000610160000000000000000010203043B
:101F70000607080900000000010203049C1F000876
:101F800000000020380000006E1A0008D41F00086E
:101F900038000020780700007E1A00080000E040AA
:101FA000CDCCCC3D0000000000000000010000008E
:101FB00010000000000000000024F40000000000F9
:101FC0000000000000000000000000000000000011
:041FD000000000000D
:040000050800018965
:00000001FF
